{
  "contractName": "Distributor",
  "abi": [
    {
      "anonymous": false,
      "inputs": [
        {
          "indexed": true,
          "internalType": "address",
          "name": "accounts",
          "type": "address"
        }
      ],
      "name": "DistributorAdded",
      "type": "event"
    },
    {
      "anonymous": false,
      "inputs": [
        {
          "indexed": true,
          "internalType": "address",
          "name": "accounts",
          "type": "address"
        }
      ],
      "name": "DistributorRemoved",
      "type": "event"
    },
    {
      "constant": true,
      "inputs": [
        {
          "internalType": "address",
          "name": "account",
          "type": "address"
        }
      ],
      "name": "isDistributor",
      "outputs": [
        {
          "internalType": "bool",
          "name": "",
          "type": "bool"
        }
      ],
      "payable": false,
      "stateMutability": "view",
      "type": "function"
    },
    {
      "constant": false,
      "inputs": [
        {
          "internalType": "address",
          "name": "account",
          "type": "address"
        }
      ],
      "name": "addDistributor",
      "outputs": [],
      "payable": false,
      "stateMutability": "nonpayable",
      "type": "function"
    },
    {
      "constant": false,
      "inputs": [],
      "name": "renounceDistributor",
      "outputs": [],
      "payable": false,
      "stateMutability": "nonpayable",
      "type": "function"
    }
  ],
  "bytecode": "0x608060405234801561001057600080fd5b50610479806100206000396000f3fe608060405234801561001057600080fd5b50600436106100415760003560e01c8063644241db146100465780637250e224146100505780638f0c86fa14610094575b600080fd5b61004e6100f0565b005b6100926004803603602081101561006657600080fd5b81019080803573ffffffffffffffffffffffffffffffffffffffff1690602001909291905050506100fb565b005b6100d6600480360360208110156100aa57600080fd5b81019080803573ffffffffffffffffffffffffffffffffffffffff169060200190929190505050610165565b604051808215151515815260200191505060405180910390f35b6100f933610182565b565b61010433610165565b610159576040517f08c379a00000000000000000000000000000000000000000000000000000000081526004018080602001828103825260258152602001806104206025913960400191505060405180910390fd5b610162816101dc565b50565b600061017b82600061023690919063ffffffff16565b9050919050565b6101968160006102c890919063ffffffff16565b8073ffffffffffffffffffffffffffffffffffffffff167f126174f6cf49c81cdb4a9214c6b8f037bef55b4ec31e4fc776cea2a1c8a88d5960405160405180910390a250565b6101f081600061037390919063ffffffff16565b8073ffffffffffffffffffffffffffffffffffffffff167fddbf200aa634dc3fb81cfd68583dd1040d1c751d335e1d86b631bde3e977fea860405160405180910390a250565b60008073ffffffffffffffffffffffffffffffffffffffff168273ffffffffffffffffffffffffffffffffffffffff16141561027157600080fd5b8260000160008373ffffffffffffffffffffffffffffffffffffffff1673ffffffffffffffffffffffffffffffffffffffff16815260200190815260200160002060009054906101000a900460ff16905092915050565b600073ffffffffffffffffffffffffffffffffffffffff168173ffffffffffffffffffffffffffffffffffffffff16141561030257600080fd5b61030c8282610236565b61031557600080fd5b60008260000160008373ffffffffffffffffffffffffffffffffffffffff1673ffffffffffffffffffffffffffffffffffffffff16815260200190815260200160002060006101000a81548160ff0219169083151502179055505050565b600073ffffffffffffffffffffffffffffffffffffffff168173ffffffffffffffffffffffffffffffffffffffff1614156103ad57600080fd5b6103b78282610236565b156103c157600080fd5b60018260000160008373ffffffffffffffffffffffffffffffffffffffff1673ffffffffffffffffffffffffffffffffffffffff16815260200190815260200160002060006101000a81548160ff021916908315150217905550505056fe53656e64657220646f65736e27742068617665204469737472696275746f7220726f6c652ea265627a7a72315820f193032e1ca172ba644a14e45bf25acb7a0f1e2bd439a77e1f48f7fffea4176564736f6c63430005100032",
  "source": "// SPDX-License-Identifier: MIT\npragma solidity >=0.4.22 <0.8.0;\n\n// Library Import - 'Roles'\nimport \"./Roles.sol\";\n\ncontract Distributor {\n    using Roles for Roles.Role;\n\n    event DistributorAdded(address indexed accounts);\n    event DistributorRemoved(address indexed accounts);\n\n    Roles.Role private distributor;\n\n    modifier onlyDistributor() {\n        require(isDistributor(msg.sender), \"Sender doesn't have Distributor role.\");\n        _;\n    }\n\n    function isDistributor(address account) \n    public \n    view \n    returns (bool) {\n        return distributor.has(account);\n    }\n\n    function addDistributor(address account) \n    public onlyDistributor {\n        _addDistributor(account);\n    }\n\n    function renounceDistributor() \n    public {\n        _removeDistributor(msg.sender);\n    }\n\n    function _addDistributor(address account) \n    internal {\n        distributor.add(account);\n        emit DistributorAdded(account);\n    }\n\n    function _removeDistributor(address account) \n    internal {\n        distributor.remove(account);\n        emit DistributorRemoved(account);\n    }\n}\n",
  "sourcePath": "/home/shak/workspace/project/hello/contracts/Distributor.sol",
  "compiler": {
    "name": "solc",
    "version": "0.5.16+commit.9c3226ce.Emscripten.clang"
  },
  "schemaVersion": "3.2.5",
  "updatedAt": "2020-11-01T11:13:32.199Z",
  "devdoc": {
    "methods": {}
  },
  "userdoc": {
    "methods": {}
  }
}